:020000040000FA
:020000000029D5
:08000800820700340034643467
:10001000AE340034003426342C34003400342C3414
:10002000DA34003400342C34BC34003400342C3442
:100030009E34003400342F340E3400340034313414
:10004000103400340034C5341E34003400343234EB
:10005000903400340034AC345C34003400342B343D
:10006000C034831203132C30A00023082102031094
:0C007000A002031C01340420A200003494
:10020000831203138312031385018316031306302D
:100210009F00FF3085000D306200830084000030B5
:10022000A3000F306500FF306600FF3067008312C7
:1002300003130508A0000F3003112002031D172926
:10024000831203138316FF30860083120608A00072
:10025000FF3003112002031D1729831203130F30EF
:100260006500FF306600FF306700831203136400EF
:10027000051835298518C3290608A0000330650034
:100280000830850083120313051C42290F306500D6
:100290000311A00803195829A00303196B29A0030F
:1002A00003197629A0030319A329A0030319B82968
:1002B000831203130030A000003066000030860077
:1002C0000C30650000308500831203130519642982
:1002D0000F3085002D29831203130030660055303E
:1002E00086000C30650000308500642983120313FA
:1002F0000C306500023085008312031305197C2938
:10030000851D2D29FF3066000608A1000F308500ED
:100310000F306500FF3066003120A40005188E29DB
:10032000851CC3290311A408031DC32900306600DE
:10033000220886000330650008308500831203130D
:10034000051C9E292D2983120313FF30670007081F
:10035000A3000C30650002308500831203130519D9
:10036000AD29851D2D29FF3066000608A3072D291C
:10037000831203130F306500003066000708860003
:100380000518BE2935298312031303306500003098
:0C039000850083120313051CC9292D29C8
:020FFE000029C8
:02400E00FA3F77
:00000001FF
